:1000000003308A007C2B0000FF00030E8301A10057
:100010007F08A0000A08A7008A01A00E0408A20019
:100020007708A3007808A4007908A5007A08A6003C
:10003000831383128C308400801E20288C1AA829F8
:10004000220884002308F7002408F8002508F90096
:100050002608FA0027088A00210E8300FF0E7F0E73
:1000600009000A108A100A118207413454345E34A0
:1000700053344934533452343D3430342C343434D2
:100080000D3400340A108A100A11820741345434A6
:100090005E3453344934533457343D3430342C3483
:1000A00038340D3400340A108A100A1182074134A2
:1000B00054345E3453344934433453343D3430344F
:1000C0002C3463346F346E34543479347034653482
:1000D0002C34473450345234533430340D340034DB
:1000E0000A108A100A118207413454345E345334A2
:1000F0004934433453343D3430342C3469346E3411
:1001000061346334743454344F342C3436343234E0
:10011000303430340D3400340A108A100A1182074A
:10012000413454345E3453344934433453343D34CD
:1001300030342C3475347334653472342C34763462
:100140006F346434613466346F346E3465340D3426
:1001500000340A108A100A118207413454345E3484
:1001600053344934433453343D3430342C347034B4
:10017000613473347334773464342C3476346F34AC
:100180006434613466346F346E3465340D34003455
:100190000A108A100A118207413454345E345334F1
:1001A0004934433453343D3430342C346134703466
:1001B0006E342C3469346E347434653472346E3475
:1001C000653474342E3476346F3464346134663478
:1001D0006F346E3465342E34703474340D3400341E
:1001E0000A108A100A11F73E03188A0A8200413465
:1001F00054345E3453344934533453343D343034FE
:100200002C34733472347634543479347034653425
:100210002C3473346F3463346B34653474340D347C
:1002200000340A148A100A118207413454345E34AF
:1002300053344934533453343D3430342C346334E0
:100240006F346E34493464342C3430340D3400341B
:100250000A148A100A118207413454345E3453342C
:100260004934533453343D3430342C3461346C3499
:100270007034683461346234653474342C3431340D
:100280000D3400340A148A100A11820741345434A0
:100290005E3453344934533453343D3430342C3485
:1002A00061346434643472346534733473342C349C
:1002B00073346F3463346B347434633470343A346D
:1002C0002F342F34383438342E34323431343734F8
:1002D0002E343134353435342E34323432343634ED
:1002E0003A3438343134383439340D3400340A1463
:1002F0008A100A118207413454345E34533449342D
:1003000053344F343D3430340D3400340A148A10E1
:100310000A118207413454345E345334493453341F
:1003200043343D3430340D3400340A148A100A1139
:100330008207313443344F34523400343134493439
:100340004E345434003431344F344634463400345F
:10035000BC013C08023C031CBB298C1EB9298C1E25
:10036000AF291A08AE002F303C07840083132E08F3
:100370008000BC0AA92983168612203083128606C3
:100380002F08493C031DCE2930084E3C031DCE29C1
:100390003108543C031DCE290230B4002F08433CE1
:1003A000031DDA2930084F3C031DDA293108523C7D
:1003B0000319B4018C128A1120283B308400831366
:1003C00000080319F1290430F800F701F70BE629BA
:1003D000F80BE529DC30F700F70BEC290000800B67
:1003E000E32908000830B700FA30BB00DD21B70B65
:1003F000F429B70137085320B70AF70077080C1E15
:10040000FF29990018303702031DFA290430B7007C
:10041000FA30BB00DD21B70B082AB701370870207E
:10042000B70AF70077080C1E132A99001730370215
:10043000031D0E2A0430B700FA30BB00DD21B70BD4
:100440001C2AB70137088C20B70AF70077080C1E62
:10045000272A990018303702031D222A0430B700DA
:10046000FA30BB00DD21B70B302AB7013708A920CD
:10047000B70AF70077080C1E3B2A99001A3037029A
:10048000031D362A0430B700FA30BB00DD21B70B5C
:10049000442AB7013708C820B70AF70077080C1EAE
:1004A0004F2A990023303702031D4A2A0430B7002F
:1004B000FA30BB00DD21B70B582AC72BB70137082C
:1004C000F020B70AF70077080C1E642A990019304B
:1004D0003702031D5F2A0430B700FA30BB00DD216C
:1004E000B70B6D2AB70137081121B70AF700770853
:1004F0000C1E782A990012303702031D732A04302B
:10050000B700FA30BB00DD21B70B812AB7013708ED
:100510002821B70AF70077080C1E8C2A990015309D
:100520003702031D872A0430B700FA30BB00DD21F3
:10053000B70B952AB70137084221B70AF7007708A9
:100540000C1EA02A990030303702031D9B2A04306C
:10055000B700FA30BB00DD21B70BA92ACF2B380B2F
:10056000B72A83168613831286173808B300B80893
:10057000031DC02A83168613831286133808B3001E
:100580003808023C031DC62A3808B3003308340279
:100590000319CC2A3308B4000800B70137087721C3
:1005A000B70AF70077080C1ED32A99000A303702E1
:1005B000031DCE2A0230B700FA30BB00DD21B70B95
:1005C000DC2A08000230BA00FA30BB00DD21BA0B89
:1005D000E42ABA013A084220BA0AF70077080C1E4A
:1005E000EF2A99000C303A02031DEA2A0230BA00C1
:1005F000FA30BB00DD21BA0BF82A390884008313D6
:100600003A1883170030000403190C2B00080C1E45
:10061000072B9900840A022B0D300C1E0D2B99001C
:100620000230BA00FA30BB00DD21BA0B122B0800F1
:100630000230B700FA30BB00DD21B70B1A2BB7012F
:1006400037088621B70AF70077080C1E252B99007A
:100650000A303702031D202B0230B700FA30BB00EE
:10066000DD21B70B2E2B08000230B700FA30BB009B
:10067000DD21B70B362BB70137083120B70AF70059
:1006800077080C1E412B99000C303702031D3C2BC0
:100690000230B700FA30BB00DD21B70B4A2B202C0B
:1006A000851D7B2B051E7B2BB70137080E3C031CD9
:1006B000712B83168612831286160230B800FA3028
:1006C000BB00DD21B80B5F2B8316861283128612C6
:1006D0000230B800FA30BB00DD21B80B6A2BB70A34
:1006E000552B851D792B051E792B0130B800AF22C3
:1006F0007B2BB801AF225D2C03081F3983006130CA
:1007000083169900A6309800903083129800AE01AD
:100710000230B300B400B601B50107309F00831367
:10072000A801A90185120230B700FA30BB00DD2113
:10073000B70B952B851683168C16C03083128B044D
:1007400083160108C73908388100831290010030F0
:10075000F8009200003083169200F0308312970563
:1007600007309F008316050885000C30F700F70B53
:10077000B72B83121F080C1383169F0108308312B6
:10078000B700FA30BB00DD21B70BC12BF2290430D2
:10079000B700FA30BB00DD21B70BC92B5E2A8316E8
:1007A0008612831286160230B700FA30BB00DD21B4
:1007B000B70BD52B83168612831286120230B70030
:1007C000FA30BB00DD21B70BE02B83160614831231
:1007D0000618122C0230B800AF22CD220430B70028
:1007E000FA30BB00DD21B70BF02B0310330DB7003F
:1007F000370A9521FA0037089521B7007A08B80022
:100800003708B900E2220430B700FA30BB00DD211E
:10081000B70B052C18230430B700FA30BB00DD21DC
:10082000B70B0D2C831606148312061C822CCD22C6
:100830000430B700FA30BB00DD21B70B1A2C342B83
:100840000430B700FA30BB00DD21B70B222C18238F
:100850000430B700FA30BB00DD21B70B2A2C330877
:10086000340203195C2C3408B800AF22CD220430C6
:10087000B700FA30BB00DD21B70B392C0310330D64
:10088000B700370A9521FA0037089521B7007A0892
:10089000B8003708B900E2220430B700FA30BB00D4
:1008A000DD21B70B4E2C18230430B700FA30BB0003
:1008B000DD21B70B562C822C502BCD220430B700F3
:1008C000FA30BB00DD21B70B602C0310330DB700ED
:1008D000370A9521FA0037089521B7007A08B80041
:1008E0003708B900E2220430B700FA30BB00DD213E
:1008F000B70B752C18230430B700FA30BB00DD218C
:08090000B70B7D2CE52B630011
:02400E00221F6F
:00000001FF
;PIC16F628A
;CRC=06A6  CREATED="18-May-16 09:37"
